{
  "contractName": "MuckRakerContract",
  "abi": [
    {
      "inputs": [
        {
          "internalType": "address",
          "name": "ownerAddress",
          "type": "address"
        },
        {
          "internalType": "string",
          "name": "productCID",
          "type": "string"
        }
      ],
      "name": "create_project",
      "outputs": [
        {
          "internalType": "uint256",
          "name": "",
          "type": "uint256"
        }
      ],
      "stateMutability": "nonpayable",
      "type": "function"
    },
    {
      "inputs": [
        {
          "internalType": "address",
          "name": "funderAddress",
          "type": "address"
        },
        {
          "internalType": "string",
          "name": "productCID",
          "type": "string"
        }
      ],
      "name": "fund_project",
      "outputs": [
        {
          "internalType": "string",
          "name": "",
          "type": "string"
        }
      ],
      "stateMutability": "nonpayable",
      "type": "function"
    },
    {
      "inputs": [
        {
          "internalType": "string",
          "name": "productCID",
          "type": "string"
        }
      ],
      "name": "get_funders",
      "outputs": [
        {
          "internalType": "address[]",
          "name": "",
          "type": "address[]"
        }
      ],
      "stateMutability": "view",
      "type": "function",
      "constant": true
    },
    {
      "inputs": [
        {
          "internalType": "address",
          "name": "funderAddress",
          "type": "address"
        }
      ],
      "name": "get_funding",
      "outputs": [
        {
          "internalType": "string[]",
          "name": "",
          "type": "string[]"
        }
      ],
      "stateMutability": "view",
      "type": "function",
      "constant": true
    },
    {
      "inputs": [
        {
          "internalType": "string",
          "name": "productCID",
          "type": "string"
        }
      ],
      "name": "get_owner",
      "outputs": [
        {
          "internalType": "address",
          "name": "",
          "type": "address"
        }
      ],
      "stateMutability": "view",
      "type": "function",
      "constant": true
    },
    {
      "inputs": [
        {
          "internalType": "address",
          "name": "ownerAddress",
          "type": "address"
        }
      ],
      "name": "get_projects",
      "outputs": [
        {
          "internalType": "string[]",
          "name": "",
          "type": "string[]"
        }
      ],
      "stateMutability": "view",
      "type": "function",
      "constant": true
    }
  ],
  "bytecode": "0x608060405234801561001057600080fd5b50610824806100206000396000f3fe608060405234801561001057600080fd5b50600436106100625760003560e01c806311dbc7d6146100675780634ff896dc146100905780635857ee0d146100b05780635e2bf530146100d057806362cb90a9146100f0578063822a675114610110575b600080fd5b61007a610075366004610606565b610123565b60405161008791906107b5565b60405180910390f35b6100a361009e36600461065f565b6101a8565b60405161008791906106e2565b6100c36100be3660046105d8565b6101da565b6040516100879190610742565b6100e36100de366004610606565b6102c6565b60405161008791906107a2565b6101036100fe36600461065f565b610362565b60405161008791906106f6565b6100c361011e3660046105d8565b6103dc565b6001600160a01b038216600090815260208181526040822080546001810182558184528284208551929361015e9391909201918601906104bf565b508360018460405161017091906106c6565b90815260405190819003602001902080546001600160a01b03929092166001600160a01b031990921691909117905554905092915050565b60006001826040516101ba91906106c6565b908152604051908190036020019020546001600160a01b03169050919050565b6001600160a01b038116600090815260208181526040808320805482518185028101850190935280835260609492939192909184015b828210156102bb5760008481526020908190208301805460408051601f60026000196101006001871615020190941693909304928301859004850281018501909152818152928301828280156102a75780601f1061027c576101008083540402835291602001916102a7565b820191906000526020600020905b81548152906001019060200180831161028a57829003601f168201915b505050505081526020019060010190610210565b505050509050919050565b6001600160a01b03821660009081526002602090815260408220805460018101825581845292829020845160609492936103079392909201918601906104bf565b50600060038460405161031a91906106c6565b90815260405160209181900382019020805460018101825560009182529190200180546001600160a01b0319166001600160a01b039690961695909517909455509092915050565b606060038260405161037491906106c6565b90815260408051918290036020908101832080548083028501830190935282845291908301828280156103d057602002820191906000526020600020905b81546001600160a01b031681526001909101906020018083116103b2575b50505050509050919050565b6001600160a01b0381166000908152600260209081526040808320805482518185028101850190935280835260609492939192909184015b828210156102bb5760008481526020908190208301805460408051601f60026000196101006001871615020190941693909304928301859004850281018501909152818152928301828280156104ab5780601f10610480576101008083540402835291602001916104ab565b820191906000526020600020905b81548152906001019060200180831161048e57829003601f168201915b505050505081526020019060010190610414565b828054600181600116156101000203166002900490600052602060002090601f016020900481019282601f1061050057805160ff191683800117855561052d565b8280016001018555821561052d579182015b8281111561052d578251825591602001919060010190610512565b5061053992915061053d565b5090565b61055791905b808211156105395760008155600101610543565b90565b600082601f83011261056a578081fd5b813567ffffffffffffffff80821115610581578283fd5b604051601f8301601f1916810160200182811182821017156105a1578485fd5b6040528281529250828483016020018610156105bc57600080fd5b8260208601602083013760006020848301015250505092915050565b6000602082840312156105e9578081fd5b81356001600160a01b03811681146105ff578182fd5b9392505050565b60008060408385031215610618578081fd5b82356001600160a01b038116811461062e578182fd5b9150602083013567ffffffffffffffff811115610649578182fd5b6106558582860161055a565b9150509250929050565b600060208284031215610670578081fd5b813567ffffffffffffffff811115610686578182fd5b6106928482850161055a565b949350505050565b600081518084526106b28160208601602086016107be565b601f01601f19169290920160200192915050565b600082516106d88184602087016107be565b9190910192915050565b6001600160a01b0391909116815260200190565b602080825282518282018190526000918401906040840190835b818110156107375783516001600160a01b0316835260209384019390920191600101610710565b509095945050505050565b6000602080830181845280855180835260408601915060408482028701019250838701855b8281101561079557603f1988860301845261078385835161069a565b94509285019290850190600101610767565b5092979650505050505050565b6000602082526105ff602083018461069a565b90815260200190565b60005b838110156107d95781810151838201526020016107c1565b838111156107e8576000848401525b5050505056fea2646970667358221220687ae757f7d8d4e7025a2c9551e243b159b28b897a41ff42d83ab7b2ca147f8864736f6c63430006010033",
  "source": "// File: `./contracts/SimpleStorage.sol`\r\npragma solidity ^0.6.1;\r\npragma experimental ABIEncoderV2;\r\n\r\ncontract MuckRakerContract {\r\n    mapping(address => string[]) ownsProducts;\r\n    mapping(string => address) isOwnedBy;\r\n\r\n    mapping(address => string[]) isFunding;\r\n    mapping(string => address[]) isFundedBy;\r\n\r\n    function create_project(address ownerAddress, string memory productCID)\r\n        public\r\n        returns (uint256)\r\n    {\r\n        string[] storage products = ownsProducts[ownerAddress];\r\n        products.push(productCID);\r\n\r\n        isOwnedBy[productCID] = ownerAddress;\r\n\r\n        return products.length;\r\n    }\r\n\r\n    function fund_project(address funderAddress, string memory productCID)\r\n        public\r\n        returns (string memory)\r\n    {\r\n        string[] storage funding = isFunding[funderAddress];\r\n        funding.push(productCID);\r\n\r\n        address[] storage fundedBy = isFundedBy[productCID];\r\n        fundedBy.push(funderAddress);\r\n\r\n        return productCID;\r\n    }\r\n\r\n    function get_funders(string memory productCID)\r\n        public\r\n        view\r\n        returns (address[] memory)\r\n    {\r\n        return isFundedBy[productCID];\r\n    }\r\n\r\n    function get_funding(address funderAddress)\r\n        public\r\n        view\r\n        returns (string[] memory)\r\n    {\r\n        return isFunding[funderAddress];\r\n    }\r\n\r\n    function get_owner(string memory productCID) public view returns (address) {\r\n        return isOwnedBy[productCID];\r\n    }\r\n\r\n    function get_projects(address ownerAddress)\r\n        public\r\n        view\r\n        returns (string[] memory)\r\n    {\r\n        return ownsProducts[ownerAddress];\r\n    }\r\n}\r\n",
  "sourcePath": "C:\\Users\\Aneesh Saripalli\\Desktop\\dev\\ethd\\MuckRaker\\quorum\\contracts\\MuckRakerContract.sol",
  "compiler": {
    "name": "solc",
    "version": "0.6.1+commit.e6f7d5a4.Emscripten.clang"
  },
  "schemaVersion": "3.0.23",
  "updatedAt": "2020-02-16T00:52:40.203Z",
  "networkType": "quorum",
  "devdoc": {
    "methods": {}
  },
  "userdoc": {
    "methods": {}
  }
}